{
  "contractName": "Computers",
  "abi": [
    {
      "inputs": [
        {
          "internalType": "uint256",
          "name": "coms",
          "type": "uint256"
        }
      ],
      "name": "registerComputers",
      "outputs": [],
      "stateMutability": "nonpayable",
      "type": "function"
    },
    {
      "inputs": [
        {
          "internalType": "uint256",
          "name": "id",
          "type": "uint256"
        }
      ],
      "name": "useComputer",
      "outputs": [],
      "stateMutability": "nonpayable",
      "type": "function"
    },
    {
      "inputs": [
        {
          "internalType": "uint256",
          "name": "id",
          "type": "uint256"
        }
      ],
      "name": "leaveComputer",
      "outputs": [],
      "stateMutability": "nonpayable",
      "type": "function"
    },
    {
      "inputs": [
        {
          "internalType": "uint256",
          "name": "id",
          "type": "uint256"
        }
      ],
      "name": "getComputer",
      "outputs": [
        {
          "internalType": "bool",
          "name": "",
          "type": "bool"
        },
        {
          "internalType": "address",
          "name": "",
          "type": "address"
        }
      ],
      "stateMutability": "view",
      "type": "function"
    }
  ],
  "bytecode": "0x608060405234801561001057600080fd5b5061052f806100206000396000f3fe608060405234801561001057600080fd5b506004361061004c5760003560e01c8063ab8dc75b14610051578063b0058d321461006d578063e4a94b4d14610089578063ec8ea883146100a5575b600080fd5b61006b600480360381019061006691906103d0565b6100d6565b005b610087600480360381019061008291906103d0565b6101f1565b005b6100a3600480360381019061009e91906103d0565b61028e565b005b6100bf60048036038101906100ba91906103d0565b61033b565b6040516100cd929190610459565b60405180910390f35b60008082815260200190815260200160002060000160009054906101000a900460ff16801561016557503373ffffffffffffffffffffffffffffffffffffffff1660008083815260200190815260200160002060000160019054906101000a900473ffffffffffffffffffffffffffffffffffffffff1673ffffffffffffffffffffffffffffffffffffffff16145b156101ee57600080600083815260200190815260200160002060000160006101000a81548160ff021916908315150217905550600080600083815260200190815260200160002060000160016101000a81548173ffffffffffffffffffffffffffffffffffffffff021916908373ffffffffffffffffffffffffffffffffffffffff1602179055505b50565b6000600190505b81811161028a576000806000838152602001908152602001600020905060008160000160006101000a81548160ff02191690831515021790555060008160000160016101000a81548173ffffffffffffffffffffffffffffffffffffffff021916908373ffffffffffffffffffffffffffffffffffffffff160217905550508080610282906104b1565b9150506101f8565b5050565b60008082815260200190815260200160002060000160009054906101000a900460ff1661033857600160008083815260200190815260200160002060000160006101000a81548160ff0219169083151502179055503360008083815260200190815260200160002060000160016101000a81548173ffffffffffffffffffffffffffffffffffffffff021916908373ffffffffffffffffffffffffffffffffffffffff1602179055505b50565b600080600080600085815260200190815260200160002090508060000160009054906101000a900460ff168160000160019054906101000a900473ffffffffffffffffffffffffffffffffffffffff169250925050915091565b600080fd5b6000819050919050565b6103ad8161039a565b81146103b857600080fd5b50565b6000813590506103ca816103a4565b92915050565b6000602082840312156103e6576103e5610395565b5b60006103f4848285016103bb565b91505092915050565b60008115159050919050565b610412816103fd565b82525050565b600073ffffffffffffffffffffffffffffffffffffffff82169050919050565b600061044382610418565b9050919050565b61045381610438565b82525050565b600060408201905061046e6000830185610409565b61047b602083018461044a565b9392505050565b7f4e487b7100000000000000000000000000000000000000000000000000000000600052601160045260246000fd5b60006104bc8261039a565b91507fffffffffffffffffffffffffffffffffffffffffffffffffffffffffffffffff82036104ee576104ed610482565b5b60018201905091905056fea2646970667358221220f370a4954afaf0e9d0f034b01a8467c3297acc0fb3c193dc4749797ea525ab7d64736f6c634300080d0033",
  "immutableReferences": {},
  "source": "// SPDX-License-Identifier: MIT\npragma solidity >=0.4.25 <0.9.0;\n\ncontract Computers {\n    struct computer{\n        bool used;\n        address by;\n    }\n\n    mapping(uint => computer) computers;\n\n    function registerComputers(uint coms) public {\n        for (uint i = 1; i <= coms; i++){\n            computer storage newComputer = computers[i];\n            newComputer.used = false;\n            newComputer.by = address(0);\n        }\n    }\n\n    function useComputer(uint id) public {\n        if (!computers[id].used) {\n            computers[id].used = true;\n            computers[id].by = msg.sender;\n        }\n    }\n\n    function leaveComputer(uint id) public {\n        if (computers[id].used && computers[id].by == msg.sender) {\n            computers[id].used = false;\n            computers[id].by = address(0);\n        }\n    }\n\n    function getComputer(uint id) public view returns (\n        bool,\n        address\n    ){\n        computer storage com = computers[id];\n        return(com.used,com.by);\n    }\n}",
  "sourcePath": "/Users/joseblock/Documents/Blockchain/Blockchain/WebIntro/Back/contracts/Computers.sol",
  "compiler": {
    "name": "solc",
    "version": "0.8.13+commit.abaa5c0e.Emscripten.clang"
  },
  "schemaVersion": "3.4.7",
  "updatedAt": "2022-05-20T06:47:10.908Z",
  "devdoc": {
    "kind": "dev",
    "methods": {},
    "version": 1
  },
  "userdoc": {
    "kind": "user",
    "methods": {},
    "version": 1
  }
}