{
  "contractName": "Storage",
  "abi": [
    {
      "inputs": [
        {
          "internalType": "uint256",
          "name": "num",
          "type": "uint256"
        }
      ],
      "name": "store",
      "outputs": [],
      "stateMutability": "nonpayable",
      "type": "function"
    },
    {
      "inputs": [],
      "name": "retrieve",
      "outputs": [
        {
          "internalType": "uint256",
          "name": "",
          "type": "uint256"
        }
      ],
      "stateMutability": "view",
      "type": "function",
      "constant": true
    },
    {
      "inputs": [],
      "name": "sum1",
      "outputs": [],
      "stateMutability": "nonpayable",
      "type": "function"
    },
    {
      "inputs": [],
      "name": "substract1",
      "outputs": [],
      "stateMutability": "nonpayable",
      "type": "function"
    }
  ],
  "bytecode": "0x608060405234801561001057600080fd5b50610261806100206000396000f3fe608060405234801561001057600080fd5b506004361061004c5760003560e01c80632e64cec1146100515780636057361d1461006f57806363b30ab81461008b5780639e5f504414610095575b600080fd5b61005961009f565b60405161006691906100f9565b60405180910390f35b61008960048036038101906100849190610145565b6100a8565b005b6100936100b2565b005b61009d6100c9565b005b60008054905090565b8060008190555050565b60016000546100c191906101a1565b600081905550565b60016000546100d891906101d5565b600081905550565b6000819050919050565b6100f3816100e0565b82525050565b600060208201905061010e60008301846100ea565b92915050565b600080fd5b610122816100e0565b811461012d57600080fd5b50565b60008135905061013f81610119565b92915050565b60006020828403121561015b5761015a610114565b5b600061016984828501610130565b91505092915050565b7f4e487b7100000000000000000000000000000000000000000000000000000000600052601160045260246000fd5b60006101ac826100e0565b91506101b7836100e0565b9250828210156101ca576101c9610172565b5b828203905092915050565b60006101e0826100e0565b91506101eb836100e0565b9250827fffffffffffffffffffffffffffffffffffffffffffffffffffffffffffffffff038211156102205761021f610172565b5b82820190509291505056fea26469706673582212201d39c47acd8e4e4814733edf96ae1298a908922a524f1f4bbf9ac41eb9819bba64736f6c634300080d0033",
  "immutableReferences": {},
  "source": "// SPDX-License-Identifier: GPL-3.0\n\npragma solidity >=0.7.0 <0.9.0;\n\n/**\n * @title Storage\n * @dev Store & retrieve value in a variable\n * @custom:dev-run-script ./scripts/deploy_with_ethers.ts\n */\ncontract Storage {\n\n    uint256 number;\n\n    /**\n     * @dev Store value in variable\n     * @param num value to store\n     */\n    function store(uint256 num) public {\n        number = num;\n    }\n\n    /**\n     * @dev Return value\n     * @return value of 'number'\n     */\n    function retrieve() public view returns (uint256){\n        return number;\n    }\n\n    /**\n     * @dev Sum 1 to value\n     */\n    function sum1() public {\n        number = number + 1;\n    }\n\n    /**\n     * @dev Substract 1 to value\n     */\n    function substract1() public {\n        number = number - 1;\n    }\n}",
  "sourcePath": "/Users/joseblock/Documents/Blockchain/Blockchain/contracts/Storage.sol",
  "compiler": {
    "name": "solc",
    "version": "0.8.13+commit.abaa5c0e.Emscripten.clang"
  },
  "schemaVersion": "3.4.7",
  "updatedAt": "2022-05-17T03:37:07.032Z",
  "networkType": "ethereum",
  "devdoc": {
    "custom:dev-run-script": "./scripts/deploy_with_ethers.ts",
    "details": "Store & retrieve value in a variable",
    "kind": "dev",
    "methods": {
      "retrieve()": {
        "details": "Return value",
        "returns": {
          "_0": "value of 'number'"
        }
      },
      "store(uint256)": {
        "details": "Store value in variable",
        "params": {
          "num": "value to store"
        }
      },
      "substract1()": {
        "details": "Substract 1 to value"
      },
      "sum1()": {
        "details": "Sum 1 to value"
      }
    },
    "title": "Storage",
    "version": 1
  },
  "userdoc": {
    "kind": "user",
    "methods": {},
    "version": 1
  }
}